:020000040000FA
:0400000006EF07F010
:08000800056ED8CF06F0E0CF31
:1000100007F00001E9CF0DF0EACF08F0E1CF09F0D9
:10002000E2CF0AF0D9CF0BF0DACF0CF0F3CF14F017
:10003000F4CF15F0FACF16F000C00FF001C010F0A9
:1000400002C011F003C012F004C013F0A0AA2CEFFC
:1000500000F0A1BA9CEF05F00FC000F010C001F055
:1000600011C002F012C003F013C004F00E8E0DC0D8
:10007000E9FF08C0EAFF09C0E1FF0AC0E2FF0BC0C8
:10008000D9FF0CC0DAFF14C0F3FF15C0F4FF16C08F
:10009000FAFF055007C0E0FF06C0D8FF1000F76A5E
:1000A000AE0FF66E000EF7220900F55012000401A3
:1000B0000000000000000000000000000000F76ADF
:1000C000CE0FF66E000EF7220900F5501200400028
:1000D000020000000000000000000000000000001E
:1000E00000000000000000000000000000000DAE55
:1000F00003D0F2CF0EF0F29EF76A100FF66E010EEB
:10010000F7220900F5500DAE02D00EBEF28E12009D
:10011000400040000000000000000000000000005F
:1001200000000000000000000000000000000000CF
:10013000F76A400FF66E010EF7220900F550120023
:1001400009022000010100C0320904000002FFFF83
:10015000FF000705810202000107050102400001BE
:10016000F76A700FF66E010EF7220900F5501200C3
:100170000100F76A820FF66E010EF7220900F550B2
:1001800012001201100100000040D804110001000B
:1001900001020001F76AA40FF66E010EF7220900B2
:1001A000F550120000041700F76AB80FF66E010E42
:1001B000F7220900F5501200040309041303490053
:1001C00050004E002D004500530043004F004D00ED
:1001D00021035000490043002D0055005300420008
:1001E0002D0049004E005400520055004D004500BE
:1001F0004E0054004100430049004F004E006D92F4
:1002000069946894A7EF05F06A6A6892B0EF05F008
:100210007B6B7B530AE1036A7B51240FE96E000E6E
:100220000320EA6EEF6A7B2BF4D71A6A010E1B6E6D
:10023000196A000C010E846F84510F080EE3700ED2
:100240008425016E0F0E036ED8B0032A01C0E9FFAA
:1002500003C0EAFFEF6A842BEFD71E6A1D6A000C09
:10026000400E0401016F050E036F026B880E006FD4
:10027000046B050E076F400E066F0001000C6A6AE2
:10028000686A9F0E6B6E390E696E6E6AC1DFD2DFCF
:10029000160E706E68A602D06896FCD76D98E0DFE7
:1002A000030E1F6EB6EF05F0698468986D82BCEF8F
:1002B00005F0689CC2EF05F070A002D0D1DF70900D
:1002C000689AC8EF05F07FC020F0000CFF0E206E8A
:1002D000000C7D6B235235E07D513F0832E31C500A
:1002E00005E0020A0DE0010A15E01ED0036A225063
:1002F000F2CF7FF0F29E1CDF7FBFF28E7E6F14D0B4
:10030000036A2250F2CF7FF0F29E4EDF7FBFF28E63
:100310007E6F0AD0036A2250F2CF7FF0F29E29DF6F
:100320007FBFF28E7E6F00D0222A23067D517D2B67
:10033000036A400FE96E050E0320EA6E7EC0EFFFF0
:10034000C9D7235204E17D51400801E0196A7DC0FC
:100350007FF0B9DF000C226A1C6A05010351010A13
:10036000000105E0030A08E0010A09E01FD0120EAF
:10037000236E030E1C6E1CD0200E236E19D0020EAD
:100380001C6E036A05010251F2CF7CF0F29E00015F
:1003900001DF7CBFF28E226E036A2250F2CF7CF026
:1003A000F29E02DF7CBFF28E236E02D08FDF0CD074
:1003B0000501075305E12350065D02E206C523F05F
:1003C000010E196E000185DFFEEF02F07C5304E19F
:1003D000040E1F6E2FDFC1D0050E1F6E7F6F800EC3
:1003E0007E6F010E7D6F7D510F08D8A0B6D0806B57
:1003F000036A7D51F2CF84F0F29E51DE84BFF28E0B
:10040000000A51E0040E806FD8907D35036AF2CF68
:1004100084F0F29E6CDE0900F5CF03F084BFF28E0B
:10042000816F03C082F07D51080DF350010F016E02
:10043000040E036ED8B0032A01C0E9FF03C0EAFF2F
:1004400081C0EFFF7D51080DF350020F016E040EC5
:10045000036ED8B0032A01C0E9FF03C0EAFF7FC0E2
:10046000ECFFED527EC0EFFFD8907D35036AF2CFEE
:1004700084F0F29E3CDE0900F5CF03F084BFF28EDB
:100480007E2703507F23880E836F82B1838182B3DE
:1004900083837D51080DF3CF01F0040E01C0E9FF05
:1004A000EA6E83C0EFFF036A7D51F2CF84F0F29EC3
:1004B000F6DD84BFF28E000A31E080837D51080DA5
:1004C000F350060F016E040E036ED8B0032A01C06C
:1004D000E9FF03C0EAFF7FC0ECFFED527EC0EFFFF3
:1004E000D8907D35036AF2CF84F0F29EE8DD0900F2
:1004F000F5CF03F084BFF28E7E2703507F237D511A
:10050000080DF350040F016E040E036ED8B0032AD9
:1005100001C0E9FF03C0EAFF400EEF6E80510608FC
:1005200002E10E0E806F036A7D51F2CF84F0F29EDD
:10053000B6DD84BFF28E020801E08089700E7D2551
:10054000016E0F0E036ED8B0032A01C0E9FF03C08D
:10055000EAFF80C0EFFF7D2B46D7F8EF02F00501E0
:10056000015100010DE0010A14E0020A1EE0060A32
:1005700027E0030A2CE00E0A2BE0010A2FE03CD012
:100580001BC040F50501416B020E00017F6F9BDE31
:1005900035D00501022D06D0010E1B1600017F6B20
:1005A00092DE02D0000192DE29D00501022D05D095
:1005B0001B8200017F6B87DE02D0000187DE1ED028
:1005C000020E196E02C521F07F6B7DDE17D0C3D6F7
:1005D0001AC040F5010E7F6F76DE10D00501025182
:1005E000010808E302C51AF002C57CF00001EED64E
:1005F0007F6B69DE000102D069DE00D023EF04F0DA
:100600001AC07CF005010151000105E00A0A0BE067
:10061000010A2BE03CD00501406B416B020E00014A
:100620007F6F51DE36D07C531EE0010E7C5D036A85
:10063000F2CF7EF0F29E94DD7EBFF28E016E050158
:10064000045DD8A002D000010ED0036A0451240F2B
:10065000E96E000E0320EA6EEFCF40F5010E0001B7
:100660007F6F31DE01D032DE14D07C530EE0036A9E
:1006700005010451240FE96E000E0320EA6E02C545
:10068000EFFF00017F6B1FDE01D020DE02D01EDEF7
:1006900000D023EF04F07CAF7D917CBF7D817C9FF7
:1006A0007DA110D0036A7C51F2CF7EF0F29EF7DC80
:1006B0007EBFF28E000A02E1000E01D0010E016E33
:1006C00010D00FD0036A7C51F2CF7EF0F29EE7DCAF
:1006D0007EBFF28E000A02E1000E01D0010E016E13
:1006E00000D0E6EF03F07CAF7D917CBF7D817C9FE5
:1006F0007DA110D07C51080DF350040F016E040E43
:10070000036ED8B0032A01C0E9FF03C0EAFF880ED8
:10071000EF6E09D07C51080DF3CF01F0040E01C03B
:10072000E9FFEA6EEF6AF5EF03F07CAF7D917CBFE5
:100730007D817C9F7DA110D07C51080DF350040F6A
:10074000016E040E036ED8B0032A01C0E9FF03C096
:10075000EAFF840EEF6E0AD07C51080DF3CF01F052
:10076000040E01C0E9FFEA6E840EEF6EFBEF03F0AA
:100770007CAF7D917CBF7D817C9F7DA110D07C5121
:10078000080DF350040F016E040E036ED8B0032A57
:1007900001C0E9FF03C0EAFFEFCF7EF00AD07C5131
:1007A000080DF3CF01F0040E01C0E9FFEA6EEFCFB0
:1007B0007EF07EAF02D07EB502D0000E01D0010ED9
:1007C000016E05EF04F004C57CF065D7015229E005
:1007D00005010151010A000105E0020A09E0030ACE
:1007E0000DE01DD004C57CF07ED77F6B6CDD19D089
:1007F00004C57CF09AD77F6B66DD13D00501406B92
:10080000416B04C57CF00001B3D7015204E0010E36
:100810000501406F0001020E7F6F55DD02D056DDED
:1008200000D023EF04F0196A050100517F0B00018D
:1008300005E0010A04E0030A03E003D090D6E0D605
:10084000C2D744DD00D047EF05F07C51080DF3CF4F
:1008500001F0040E01C0E9FFEA6EEFCF7EF07D519A
:10086000020806E17EAD02D07D6B02D0010E7D6FE5
:100870007D51030812E1840E7E6F7C51080DF35008
:10088000040F016E040E036ED8B0032A01C0E9FF05
:1008900003C0EAFF840EEF6E09D07D2D03D0C80E91
:1008A0007E6F04D07D5302E1880E7E6F036A010ED5
:1008B000026E7C51006E05E0D89002360336002EA1
:1008C000FBD70250FF0A006EFF0E031A00501D16E0
:1008D00003501E16D8907C35036AF2CF81F0F29E49
:1008E00006DC0900F5CF03F081BFF28E7F6F03C0F5
:1008F00080F07C51080DF350010F016E040E036E61
:10090000D8B0032A01C0E9FF03C0EAFF7FC0EFFFB0
:1009100080B17E8180B37E837C51080DF3CF01F0DE
:10092000040E01C0E9FFEA6E7EC0EFFF000C7C51AF
:10093000080DF350040F016E040E036ED8B0032AA5
:1009400001C0E9FF03C0EAFFEFCF80F080BF5BD0BA
:100950007C51080DF350050F016E040E036ED8B0E4
:10096000032A01C0E9FF03C0EAFF7DC0EFFF7F510A
:10097000020816E17C51080DF350040F016E040EBD
:10098000036ED8B0032A01C0E9FF03C0EAFFEFCF2E
:1009900080F080AD02D07F6B02D0010E7F6F13D04C
:1009A0007F51040810E17C51080DF3CF01F0040ED3
:1009B00001C0E9FFEA6EEFCF80F080AD03D0010EF9
:1009C0007F6F01D07F6B7F2D03D0C80E806F04D066
:1009D0007F5302E1880E806F7EB180817EB3808379
:1009E0007C51080DF350040F016E040E036ED8B055
:1009F000032A01C0E9FF03C0EAFF80C0EFFF010E38
:100A0000016E03D000D0000E016E000C7C5302E199
:100A100027DC0FD0036A010E026E7C51006E05E0E8
:100A2000D89002360336002EFBD702501D12035019
:100A30001E12000C7DC06EFF7D5303E0040E1F6E7E
:100A400002D0020E1F6E2AEF05F01A6A196A21C041
:100A50007DF0F0D736EF05F07C5308E1192C02D079
:100A600038DC04D01950020801E1EFD7000C6C30DB
:100A70007B6F7B337B331F0E7B176C523BE1040192
:100A800000513C0B34081BE1046B0001CCD6203C28
:100A900005D07C6B030E7D6FD8DE0ED07C6B020E12
:100AA0007D6FD3DE2050FE0807E07C6B7E6B20C09C
:100AB0007DF0040E7F6F3BDF6D9819D0040100516B
:100AC0003C0B040815E100017C6BA0DF7C6B020E7F
:100AD0007D6FBBDE2050FE080AE0203C01D007D02D
:100AE0007C6B7E6B20C07DF0010E7F6F20DF0401E8
:100AF00020D000016C50040812E1FF0E206E7C6BC8
:100B0000ABDF203C01D008D07C6B7E6B20C07DF039
:100B1000020E7F6F0CDF02D030EC01F009D06CB414
:100B200004D07BC07CF072DF03D07BC07CF094DF0C
:100B300004010001CDEF05F01F5201E12FD06852F2
:100B40002DE068A404D069A402D0FFEF00F06DA2EC
:100B500001D024D068A204D069A202D004EF01F031
:100B600068A004D069A002D03FEF01F068A804D0CB
:100B700069A802D054EF01F068AC04D069AC02D08F
:100B800059EF01F068AA04D069AA02D05CEF01F025
:100B900068A604D069A602D06AD76896A19A2CEFFD
:100BA00000F06D6A696A080E6F6E94503009946E99
:100BB0001F6A186AF2BE188EF29E08EC01F018BE89
:100BC000F28E1E6A1D6A08EF06F0186AF2BE188ED1
:100BD000F29E08EC01F018BEF28E6D6A140E6F6E74
:100BE000696A6D86010E1F6EF9EF05F06DB601D0D2
:100BF000ECD71F2C0BD06DBA09D0686A696AA08A3D
:100C0000C00EF212110E696E020E1F6E000CC9D7D3
:100C1000EDDF1F500208FCE141EF07F01A5202E13C
:100C20000400FCD743EF07F06E51080DF350020F9C
:100C3000016E040E036ED8B0032A01C0E9FF03C0A1
:100C4000EAFFECCF03F0ED52EFCF73F003C074F086
:100C50006E51080DF350010F016E040E036ED8B0F3
:100C6000032A01C0E9FF03C0EAFFEF50036A766F71
:100C700003C077F06E51080DF3CF01F0040E01C0F0
:100C8000E9FFEA6EEFCF75F075B1778175B37783C1
:100C90007751725D08E303E17151765D04E277C03C
:100CA00072F076C071F0776B766B7751725D1AE3F4
:100CB00003E17151765D16E273C0E9FF74C0EAFF8B
:100CC000EFCF7AF070C0EAFF6FC0E9FF7AC0EFFFA4
:100CD0006F2BD8B4702B732BD8B4742B762BD8B45D
:100CE000772BE3D771C001F072C002F083EF06F0FA
:100CF00069C06EF06BC070F06AC06FF06DC072F0CA
:100D00006CC071F091D702C06DF001C06CF0186A30
:100D1000F2BE188EF29E69C07CF0020E7D6F95DDEA
:100D200018BEF28E6CC001F06DC002F055EF07F0F6
:100D30006951080DF350040F016E040E036ED8B014
:100D4000032A01C0E9FF03C0EAFFEFCF71F071BFD2
:100D500045D06951080DF350060F016E040E036E65
:100D6000D8B0032A01C0E9FF03C0EAFFECCF03F0CB
:100D7000ED52EFCF72F003C073F0706B6F6B705178
:100D80006D5D1AE303E16C516F5D16E26AC0E9FF25
:100D90006BC0EAFFEFCF76F073C0EAFF72C0E9FFE5
:100DA00076C0EFFF722BD8B4732B6A2BD8B46B2BA1
:100DB0006F2BD8B4702BE3D7186AF2BE188EF29E50
:100DC00069C07CF06DC07EF06CC07DF06EC07FF0BD
:100DD000AEDD18BEF28E015003D000D0000E016EC1
:100DE000000C6A51016A695D03E269C000F00CD031
:100DF000006A080E6B6F693700366A51005CD8B024
:100E0000006E01366B2FF7D78FEF07F0F86AD09E90
:100E10000D8EEA6AE96AC150C00B0F09C16E070E58
:100E2000B46E1F6A236AC150C00B0D09C16EC08029
:100E3000C082C084C09EC280000E016EC250C30B2F
:100E40000110C26E270E006E002EFED700D0C282A7
:100E5000C2B2FED7C4CF68F0040E016EC250C30BFD
:100E60000110C26E270E006E002EFED700D0C28287
:100E7000C2B2FED7C4CF68F0939C8A9C939E8A8EA0
:100E8000C6D6B4DECBD6939C8A8C939E8A9E1A5289
:100E9000D8B489D01DA287D0010E696F6B6B250E67
:100EA0006A6F6D6B030E6C6F23D725520EE12750CE
:100EB0002624286E010E696F6B6B280E6A6F6D6BAE
:100EC000400E6C6F020E6E6F33DF252C0ED0275054
:100ED000265C286E010E696F6B6B280E6A6F6D6B56
:100EE000400E6C6F020E6E6F23DF255002080FE17B
:100EF00026502702F3CF28F0010E696F6B6B280E86
:100F00006A6F6D6B400E6C6F020E6E6F11DF2550B5
:100F1000030812E126C069F027C06AF062D701C059
:100F200028F0010E696F6B6B280E6A6F6D6B400EB7
:100F30006C6F020E6E6FFCDE2550090821E126520F
:100F400004E1939C8A9C939E8A9E262C04D0939CB9
:100F50008A8C939E8A9E2650020804E1939C8A9C68
:100F6000939E8A8E2650030804E1939C8A8C939E5C
:100F70008A8E2650040804E1939C8A7C939E8A7E84
:100F800025500A0810E1C282C2B2FED7C4CF28F0B1
:100F9000010E696F6B6B280E6A6F6D6B400E6C6F84
:0A0FA000020E6E6FC5DE73D703006A
:020000040030CA
:0E000000220E3E1E008381000FC00FE00F4055
:00000001FF
;PIC18F2550
