:020000040000FA
:0400000006EF07F010
:08000800056ED8CF06F0E0CF31
:1000100007F00001E9CF0DF0EACF08F0E1CF09F0D9
:10002000E2CF0AF0D9CF0BF0DACF0CF0F3CF14F017
:10003000F4CF15F0FACF16F000C00FF001C010F0A9
:1000400002C011F003C012F004C013F0A0AA2CEFFC
:1000500000F0A1BA9CEF05F00FC000F010C001F055
:1000600011C002F012C003F013C004F00E8E0DC0D8
:10007000E9FF08C0EAFF09C0E1FF0AC0E2FF0BC0C8
:10008000D9FF0CC0DAFF14C0F3FF15C0F4FF16C08F
:10009000FAFF055007C0E0FF06C0D8FF1000F76A5E
:1000A000AE0FF66E000EF7220900F55012000401A3
:1000B0000000000000000000000000000000F76ADF
:1000C000CE0FF66E000EF7220900F5501200400028
:1000D00040000000000000000000000000000000E0
:1000E00000000000000000000000000000000DAE55
:1000F00003D0F2CF0EF0F29EF76A100FF66E010EEB
:10010000F7220900F5500DAE02D00EBEF28E12009D
:10011000400003000000000000000000000000009C
:1001200000000000000000000000000000000000CF
:10013000F76A400FF66E010EF7220900F550120023
:1001400009022000010100C0320904000002FFFF83
:10015000FF000705810240000107050102030001BD
:10016000F76A700FF66E010EF7220900F5501200C3
:100170000100F76A820FF66E010EF7220900F550B2
:1001800012001201100100000040D804110001000B
:1001900001020001F76AA40FF66E010EF7220900B2
:1001A000F550120000041700F76AB80FF66E010E42
:1001B000F7220900F5501200040309041303490053
:1001C00050004E002D004500530043004F004D00ED
:1001D00021035000490043002D0055005300420008
:1001E0002D0049004E005400520055004D004500BE
:1001F0004E0054004100430049004F004E006D92F4
:1002000069946894A7EF05F06A6A6892B0EF05F008
:10021000C16BC1530AE1036AC151240FE96E000E9C
:100220000320EA6EEF6AC12BF4D71A6A010E1B6E27
:10023000196A000C010ECA6FCA510F080EE3700E46
:10024000CA25016E0F0E036ED8B0032A01C0E9FF64
:1002500003C0EAFFEF6ACA2BEFD71E6A1D6A000CC3
:10026000400E0401016F050E036F026B880E006FD4
:10027000046B050E076F400E066F0001000C6A6AE2
:10028000686A9F0E6B6E390E696E6E6AC1DFD2DFCF
:10029000160E706E68A602D06896FCD76D98E0DFE7
:1002A000030E1F6EB6EF05F0698468986D82BCEF8F
:1002B00005F0689CC2EF05F070A002D0D1DF70900D
:1002C000689AC8EF05F0C5C020F0000CFF0E206E44
:1002D000000CC36B235235E0C3513F0832E31C507E
:1002E00005E0020A0DE0010A15E01ED0036A225063
:1002F000F2CFC5F0F29E1CDFC5BFF28EC46F14D0E2
:10030000036A2250F2CFC5F0F29E4EDFC5BFF28ED7
:10031000C46F0AD0036A2250F2CFC5F0F29E29DFE3
:10032000C5BFF28EC46F00D0222A2306C351C32B4F
:10033000036A400FE96E050E0320EA6EC4C0EFFFAA
:10034000C9D7235204E1C351400801E0196AC3C070
:10035000C5F0B9DF000C226A1C6A05010351010ACD
:10036000000105E0030A08E0010A09E01FD0120EAF
:10037000236E030E1C6E1CD0200E236E19D0020EAD
:100380001C6E036A05010251F2CFC2F0F29E000119
:1003900001DFC2BFF28E226E036A2250F2CFC2F09A
:1003A000F29E02DFC2BFF28E236E02D08FDF0CD02E
:1003B0000501075305E12350065D02E206C523F05F
:1003C000010E196E000185DFFEEF02F0C25304E159
:1003D000040E1F6E2FDFC1D0050E1F6EC56F800E7D
:1003E000C46F010EC36FC3510F08D8A0B6D0C66B3F
:1003F000036AC351F2CFCAF0F29E51DECABFF28E39
:10040000000A51E0040EC66FD890C335036AF2CFDC
:10041000CAF0F29E6CDE0900F5CF03F0CABFF28E7F
:10042000C76F03C0C8F0C351080DF350010F016E30
:10043000040E036ED8B0032A01C0E9FF03C0EAFF2F
:10044000C7C0EFFFC351080DF350020F016E040E39
:10045000036ED8B0032A01C0E9FF03C0EAFFC5C09C
:10046000ECFFED52C4C0EFFFD890C335036AF2CF62
:10047000CAF0F29E3CDE0900F5CF03F0CABFF28E4F
:10048000C4270350C523880EC96FC8B1C981C8B33A
:10049000C983C351080DF3CF01F0040E01C0E9FF79
:1004A000EA6EC9C0EFFF036AC351F2CFCAF0F29EF1
:1004B000F6DDCABFF28E000A31E0C683C351080DD3
:1004C000F350060F016E040E036ED8B0032A01C06C
:1004D000E9FF03C0EAFFC5C0ECFFED52C4C0EFFF67
:1004E000D890C335036AF2CFCAF0F29EE8DD090066
:1004F000F5CF03F0CABFF28EC4270350C523C35102
:10050000080DF350040F016E040E036ED8B0032AD9
:1005100001C0E9FF03C0EAFF400EEF6EC6510608B6
:1005200002E10E0EC66F036AC351F2CFCAF0F29E0B
:10053000B6DDCABFF28E020801E0C689700EC3257F
:10054000016E0F0E036ED8B0032A01C0E9FF03C08D
:10055000EAFFC6C0EFFFC32B46D7F8EF02F0050154
:10056000015100010DE0010A14E0020A1EE0060A32
:1005700027E0030A2CE00E0A2BE0010A2FE03CD012
:100580001BC040F50501416B020E0001C56F9BDEEB
:1005900035D00501022D06D0010E1B160001C56BDA
:1005A00092DE02D0000192DE29D00501022D05D095
:1005B0001B820001C56B87DE02D0000187DE1ED0E2
:1005C000020E196E02C521F0C56B7DDE17D0C3D6B1
:1005D0001AC040F5010EC56F76DE10D0050102513C
:1005E000010808E302C51AF002C5C2F00001EED608
:1005F000C56B69DE000102D069DE00D023EF04F094
:100600001AC0C2F005010151000105E00A0A0BE021
:10061000010A2BE03CD00501406B416B020E00014A
:10062000C56F51DE36D0C2531EE0010EC25D036AB3
:10063000F2CFC4F0F29E94DDC4BFF28E016E0501CC
:10064000045DD8A002D000010ED0036A0451240F2B
:10065000E96E000E0320EA6EEFCF40F5010E0001B7
:10066000C56F31DE01D032DE14D0C2530EE0036A12
:1006700005010451240FE96E000E0320EA6E02C545
:10068000EFFF0001C56B1FDE01D020DE02D01EDEB1
:1006900000D023EF04F0C2AFC391C2BFC381C29F99
:1006A000C3A110D0036AC251F2CFC4F0F29EF7DCAE
:1006B000C4BFF28E000A02E1000E01D0010E016EED
:1006C00010D00FD0036AC251F2CFC4F0F29EE7DC23
:1006D000C4BFF28E000A02E1000E01D0010E016ECD
:1006E00000D0E6EF03F0C2AFC391C2BFC381C29F87
:1006F000C3A110D0C251080DF350040F016E040EB7
:10070000036ED8B0032A01C0E9FF03C0EAFF880ED8
:10071000EF6E09D0C251080DF3CF01F0040E01C0F5
:10072000E9FFEA6EEF6AF5EF03F0C2AFC391C2BF13
:10073000C381C29FC3A110D0C251080DF350040F52
:10074000016E040E036ED8B0032A01C0E9FF03C096
:10075000EAFF840EEF6E0AD0C251080DF3CF01F00C
:10076000040E01C0E9FFEA6E840EEF6EFBEF03F0AA
:10077000C2AFC391C2BFC381C29FC3A110D0C25137
:10078000080DF350040F016E040E036ED8B0032A57
:1007900001C0E9FF03C0EAFFEFCFC4F00AD0C251A5
:1007A000080DF3CF01F0040E01C0E9FFEA6EEFCFB0
:1007B000C4F0C4AF02D0C4B502D0000E01D0010E07
:1007C000016E05EF04F004C5C2F065D7015229E0BF
:1007D00005010151010A000105E0020A09E0030ACE
:1007E0000DE01DD004C5C2F07ED7C56B6CDD19D0FD
:1007F00004C5C2F09AD7C56B66DD13D00501406B06
:10080000416B04C5C2F00001B3D7015204E0010EF0
:100810000501406F0001020EC56F55DD02D056DDA7
:1008200000D023EF04F0196A050100517F0B00018D
:1008300005E0010A04E0030A03E003D090D6E0D605
:10084000C2D744DD00D047EF05F0C251080DF3CF09
:1008500001F0040E01C0E9FFEA6EEFCFC4F0C3510E
:10086000020806E1C4AD02D0C36B02D0010EC36F13
:10087000C351030812E1840EC46FC251080DF35036
:10088000040F016E040E036ED8B0032A01C0E9FF05
:1008900003C0EAFF840EEF6E09D0C32D03D0C80E4B
:1008A000C46F04D0C35302E1880EC46F036A010E03
:1008B000026EC251006E05E0D89002360336002E5B
:1008C000FBD70250FF0A006EFF0E031A00501D16E0
:1008D00003501E16D890C235036AF2CFC7F0F29EBD
:1008E00006DC0900F5CF03F0C7BFF28EC56F03C069
:1008F000C6F0C251080DF350010F016E040E036ED5
:10090000D8B0032A01C0E9FF03C0EAFFC5C0EFFF6A
:10091000C6B1C481C6B3C483C251080DF3CF01F080
:10092000040E01C0E9FFEA6EC4C0EFFF000CC25123
:10093000080DF350040F016E040E036ED8B0032AA5
:1009400001C0E9FF03C0EAFFEFCFC6F0C6BF5BD02E
:10095000C251080DF350050F016E040E036ED8B09E
:10096000032A01C0E9FF03C0EAFFC3C0EFFFC5517E
:10097000020816E1C251080DF350040F016E040E77
:10098000036ED8B0032A01C0E9FF03C0EAFFEFCF2E
:10099000C6F0C6AD02D0C56B02D0010EC56F13D034
:1009A000C551040810E1C251080DF3CF01F0040E47
:1009B00001C0E9FFEA6EEFCFC6F0C6AD03D0010E6D
:1009C000C56F01D0C56BC52D03D0C80EC66F04D04E
:1009D000C55302E1880EC66FC4B1C681C4B3C683D5
:1009E000C251080DF350040F016E040E036ED8B00F
:1009F000032A01C0E9FF03C0EAFFC6C0EFFF010EF2
:100A0000016E03D000D0000E016E000CC25302E153
:100A100027DC0FD0036A010E026EC251006E05E0A2
:100A2000D89002360336002EFBD702501D12035019
:100A30001E12000CC3C06EFFC35303E0040E1F6EF2
:100A400002D0020E1F6E2AEF05F01A6A196A21C041
:100A5000C3F0F0D736EF05F0C25308E1192C02D0ED
:100A600038DC04D01950020801E1EFD7000C6C30DB
:100A7000C16FC133C1331F0EC1176C523BE104017A
:100A800000513C0B34081BE1046B0001CCD6203C28
:100A900005D0C26B030EC36FD8DE0ED0C26B020E40
:100AA000C36FD3DE2050FE0807E0C26BC46B20C0CA
:100AB000C3F0040EC56F3BDF6D9819D004010051DF
:100AC0003C0B040815E10001C26BA0DFC26B020EF3
:100AD000C36FBBDE2050FE080AE0203C01D007D0E7
:100AE000C26BC46B20C0C3F0010EC56F20DF0401D0
:100AF00020D000016C50040812E1FF0E206EC26B82
:100B0000ABDF203C01D008D0C26BC46B20C0C3F067
:100B1000020EC56F0CDF02D030EC01F009D06CB4CE
:100B200004D0C1C0C2F072DF03D0C1C0C2F094DFF4
:100B300004010001CDEF05F01F5201E12FD06852F2
:100B40002DE068A404D069A402D0FFEF00F06DA2EC
:100B500001D024D068A204D069A202D004EF01F031
:100B600068A004D069A002D03FEF01F068A804D0CB
:100B700069A802D054EF01F068AC04D069AC02D08F
:100B800059EF01F068AA04D069AA02D05CEF01F025
:100B900068A604D069A602D06AD76896A19A2CEFFD
:100BA00000F06D6A696A080E6F6E94503009946E99
:100BB0001F6A186AF2BE188EF29E08EC01F018BE89
:100BC000F28E1E6A1D6A08EF06F0186AF2BE188ED1
:100BD000F29E08EC01F018BEF28E6D6A140E6F6E74
:100BE000696A6D86010E1F6EF9EF05F06DB601D0D2
:100BF000ECD71F2C0BD06DBA09D0686A696AA08A3D
:100C0000C00EF212110E696E020E1F6E000CC9D7D3
:100C1000EDDF1F500208FCE128EF07F01A5202E155
:100C20000400FCD72AEF07F0B451080DF350020F6F
:100C3000016E040E036ED8B0032A01C0E9FF03C0A1
:100C4000EAFFECCF03F0ED52EFCFB9F003C0BAF0FA
:100C5000B451080DF350010F016E040E036ED8B0AD
:100C6000032A01C0E9FF03C0EAFFEF50036ABC6F2B
:100C700003C0BDF0B451080DF3CF01F0040E01C064
:100C8000E9FFEA6EEFCFBBF0BBB1BD81BBB3BD8363
:100C9000BD51B85D08E303E1B751BC5D04E2BDC0DE
:100CA000B8F0BCC0B7F0BD6BBC6BBD51B85D1AE30A
:100CB00003E1B751BC5D16E2B9C0E9FFBAC0EAFF73
:100CC000EFCFC0F0B6C0EAFFB5C0E9FFC0C0EFFF8C
:100CD000B52BD8B4B62BB92BD8B4BA2BBC2BD8B4FF
:100CE000BD2BE3D7B7C001F0B8C002F083EF06F028
:100CF000AFC0B4F0B1C0B6F0B0C0B5F0B3C0B8F09A
:100D0000B2C0B7F091D702C0B3F001C0B2F0186A18
:100D1000F2BE188EF29EAFC0C2F0020EC36F95DD18
:100D200018BEF28EB2C001F0B3C002F0BCEF07F003
:100D3000AF51080DF350040F016E040E036ED8B0CE
:100D4000032A01C0E9FF03C0EAFFEFCFB7F0B7BF46
:100D500045D0AF51080DF350060F016E040E036E1F
:100D6000D8B0032A01C0E9FF03C0EAFFECCF03F0CB
:100D7000ED52EFCFB8F003C0B9F0B66BB56BB6511A
:100D8000B35D1AE303E1B251B55D16E2B0C0E9FF0D
:100D9000B1C0EAFFEFCFBCF0B9C0EAFFB8C0E9FFCD
:100DA000BCC0EFFFB82BD8B4B92BB02BD8B4B12B43
:100DB000B52BD8B4B62BE3D7186AF2BE188EF29EC4
:100DC000AFC0C2F0B3C0C4F0B2C0C3F0B4C0C5F08D
:100DD000AEDD18BEF28E015003D000D0000E016EC1
:100DE000000CB051016AAF5D03E2AFC000F00CD05F
:100DF000006A080EB16FAF370036B051005CD8B052
:100E0000006E0136B12FF7D7F6EF07F0F86AD09EE3
:100E10000D8EEA6AE96AC150C00B0F09C16E070E58
:100E2000B46E1F6A236A020EAD6FAE6B296E2A6E16
:100E30006B6F6C6FC150C00B0B09C16EC080C0825C
:100E4000C084C09EC280939C8A9C939E8A8EDFD66B
:100E5000CDDEE4D6939C8A8C939E8A9E1A52D8B497
:100E600079D1AD51410830E3000E016EC250C30B81
:100E70000110C26E270E006E002EFED700D0036A4E
:100E8000AD51290FE96E000E0320EA6EC282C2B294
:100E9000FED7C4CFEFFF040E016EC250C30B01108A
:100EA000C26E270E006E002EFED700D0036AAD5131
:100EB0006B0FE96E000E0320EA6EC282C2B2FED74B
:100EC000C4CFEFFFAD2B35D0010EAE6F020EAD6F6C
:100ED000430E296E000E016EC250C30B0110C26E8C
:100EE000270E006E002EFED700D0036AAD51290FE9
:100EF000E96E000E0320EA6EC282C2B2FED7C4CFF2
:100F0000EFFF040E016EC250C30B0110C26E270E1C
:100F1000006E002EFED700D0036AAD516B0FE96E54
:100F2000000E0320EA6EC282C2B2FED7C4CFEFFF2A
:100F3000AD2B1DA20FD1295043080EE1AD51410840
:100F400006E3010EAD5D2A6EADC029F004D0420E5D
:100F50002A6E020E296E03D0010EAD5D2A6E29C0E5
:100F60006BF02AC06CF0010EAF6FB16B250EB06F45
:100F7000B36B030EB26FBCD625520EE12750262468
:100F8000286E010EAF6FB16B280EB06FB36B010E00
:100F9000B26F020EB46FCCDE252C0ED02750265C2B
:100FA000286E010EAF6FB16B280EB06FB36B010EE0
:100FB000B26F020EB46FBCDE255002080FE126505E
:100FC0002702F3CF28F0010EAF6FB16B280EB06F80
:100FD000B36B010EB26F020EB46FAADE2550030888
:100FE00012E126C0AFF027C0B0F0FBD601C028F058
:100FF000010EAF6FB16B280EB06FB36B010EB26F05
:10100000020EB46F95DE2550040816E1938081B07E
:1010100005D0010E286E93928A8203D0286A93929B
:101020008A92010EAF6FB16B280EB06FB36B010ED9
:10103000B26F020EB46F7CDE2550050816E1080E73
:10104000016EC250C30B0110C26EC282C2B2FED783
:10105000C4CF28F0010EAF6FB16B280EB06FB36B29
:10106000010EB26F020EB46F63DE2550060816E162
:101070000C0E016EC250C30B0110C26EC282C2B20E
:10108000FED7C4CF28F0010EAF6FB16B280EB06F42
:10109000B36B010EB26F020EB46F4ADE2550090821
:1010A00021E1265204E1939C8A9C939E8A9E262CE1
:1010B00004D0939C8A8C939E8A9E2650020804E159
:1010C000939C8A9C939E8A8E2650030804E1939CED
:1010D0008A8C939E8A8E2650040804E1939C8A7C15
:1010E000939E8A7E25500A0819E1AE530CE0010E4A
:1010F000AF6FB16B290EB06FB36B420EB26F020EC1
:10110000B46F16DE0BD0010EAF6FB16B290EB06F4E
:10111000B36BADC0B2F0020EB46F0ADE25500B08FF
:1011200019E1AE530CE0010EAF6FB16B6B0EB06FF7
:10113000B36B420EB26F020EB46FFADD0BD0010E2C
:10114000AF6FB16B6B0EB06FB36BADC0B2F0020E90
:08115000B46FEEDD83D603004D
:020000040030CA
:0E000000220E3E1E008381000FC00FE00F4055
:00000001FF
;PIC18F2550
