:020000040000FA
:0400000006EF07F010
:08000800056ED8CF06F0E0CF31
:1000100007F00001E9CF0DF0EACF08F0E1CF09F0D9
:10002000E2CF0AF0D9CF0BF0DACF0CF0F3CF14F017
:10003000F4CF15F0FACF16F000C00FF001C010F0A9
:1000400002C011F003C012F004C013F0A0AA2CEFFC
:1000500000F0A1BA9CEF05F00FC000F010C001F055
:1000600011C002F012C003F013C004F00E8E0DC0D8
:10007000E9FF08C0EAFF09C0E1FF0AC0E2FF0BC0C8
:10008000D9FF0CC0DAFF14C0F3FF15C0F4FF16C08F
:10009000FAFF055007C0E0FF06C0D8FF1000F76A5E
:1000A000AE0FF66E000EF7220900F55012000401A3
:1000B0000000000000000000000000000000F76ADF
:1000C000CE0FF66E000EF7220900F5501200400028
:1000D00040000000000000000000000000000000E0
:1000E00000000000000000000000000000000DAE55
:1000F00003D0F2CF0EF0F29EF76A100FF66E010EEB
:10010000F7220900F5500DAE02D00EBEF28E12009D
:10011000400003000000000000000000000000009C
:1001200000000000000000000000000000000000CF
:10013000F76A400FF66E010EF7220900F550120023
:1001400009022000010100C0320904000002FFFF83
:10015000FF000705810240000107050102030001BD
:10016000F76A700FF66E010EF7220900F5501200C3
:100170000100F76A820FF66E010EF7220900F550B2
:1001800012001201100100000040D804110001000B
:1001900001020001F76AA40FF66E010EF7220900B2
:1001A000F550120000041700F76AB80FF66E010E42
:1001B000F7220900F5501200040309041303490053
:1001C00050004E002D004500530043004F004D00ED
:1001D00021035000490043002D0055005300420008
:1001E0002D0049004E005400520055004D004500BE
:1001F0004E0054004100430049004F004E006D92F4
:1002000069946894A7EF05F06A6A6892B0EF05F008
:10021000C06BC0530AE1036AC051240FE96E000E9F
:100220000320EA6EEF6AC02BF4D71A6A010E1B6E28
:10023000196A000C010EC96FC9510F080EE3700E48
:10024000C925016E0F0E036ED8B0032A01C0E9FF65
:1002500003C0EAFFEF6AC92BEFD71E6A1D6A000CC4
:10026000400E0401016F050E036F026B880E006FD4
:10027000046B050E076F400E066F0001000C6A6AE2
:10028000686A9F0E6B6E390E696E6E6AC1DFD2DFCF
:10029000160E706E68A602D06896FCD76D98E0DFE7
:1002A000030E1F6EB6EF05F0698468986D82BCEF8F
:1002B00005F0689CC2EF05F070A002D0D1DF70900D
:1002C000689AC8EF05F0C4C020F0000CFF0E206E45
:1002D000000CC26B235235E0C2513F0832E31C5080
:1002E00005E0020A0DE0010A15E01ED0036A225063
:1002F000F2CFC4F0F29E1CDFC4BFF28EC36F14D0E5
:10030000036A2250F2CFC4F0F29E4EDFC4BFF28ED9
:10031000C36F0AD0036A2250F2CFC4F0F29E29DFE5
:10032000C4BFF28EC36F00D0222A2306C251C22B53
:10033000036A400FE96E050E0320EA6EC3C0EFFFAB
:10034000C9D7235204E1C251400801E0196AC2C072
:10035000C4F0B9DF000C226A1C6A05010351010ACE
:10036000000105E0030A08E0010A09E01FD0120EAF
:10037000236E030E1C6E1CD0200E236E19D0020EAD
:100380001C6E036A05010251F2CFC1F0F29E00011A
:1003900001DFC1BFF28E226E036A2250F2CFC1F09C
:1003A000F29E02DFC1BFF28E236E02D08FDF0CD02F
:1003B0000501075305E12350065D02E206C523F05F
:1003C000010E196E000185DFFEEF02F0C15304E15A
:1003D000040E1F6E2FDFC1D0050E1F6EC46F800E7E
:1003E000C36F010EC26FC2510F08D8A0B6D0C56B43
:1003F000036AC251F2CFC9F0F29E51DEC9BFF28E3C
:10040000000A51E0040EC56FD890C235036AF2CFDE
:10041000C9F0F29E6CDE0900F5CF03F0C9BFF28E81
:10042000C66F03C0C7F0C251080DF350010F016E33
:10043000040E036ED8B0032A01C0E9FF03C0EAFF2F
:10044000C6C0EFFFC251080DF350020F016E040E3B
:10045000036ED8B0032A01C0E9FF03C0EAFFC4C09D
:10046000ECFFED52C3C0EFFFD890C235036AF2CF64
:10047000C9F0F29E3CDE0900F5CF03F0C9BFF28E51
:10048000C3270350C423880EC86FC7B1C881C7B340
:10049000C883C251080DF3CF01F0040E01C0E9FF7B
:1004A000EA6EC8C0EFFF036AC251F2CFC9F0F29EF4
:1004B000F6DDC9BFF28E000A31E0C583C251080DD6
:1004C000F350060F016E040E036ED8B0032A01C06C
:1004D000E9FF03C0EAFFC4C0ECFFED52C3C0EFFF69
:1004E000D890C235036AF2CFC9F0F29EE8DD090068
:1004F000F5CF03F0C9BFF28EC3270350C423C25106
:10050000080DF350040F016E040E036ED8B0032AD9
:1005100001C0E9FF03C0EAFF400EEF6EC5510608B7
:1005200002E10E0EC56F036AC251F2CFC9F0F29E0E
:10053000B6DDC9BFF28E020801E0C589700EC22582
:10054000016E0F0E036ED8B0032A01C0E9FF03C08D
:10055000EAFFC5C0EFFFC22B46D7F8EF02F0050156
:10056000015100010DE0010A14E0020A1EE0060A32
:1005700027E0030A2CE00E0A2BE0010A2FE03CD012
:100580001BC040F50501416B020E0001C46F9BDEEC
:1005900035D00501022D06D0010E1B160001C46BDB
:1005A00092DE02D0000192DE29D00501022D05D095
:1005B0001B820001C46B87DE02D0000187DE1ED0E3
:1005C000020E196E02C521F0C46B7DDE17D0C3D6B2
:1005D0001AC040F5010EC46F76DE10D0050102513D
:1005E000010808E302C51AF002C5C1F00001EED609
:1005F000C46B69DE000102D069DE00D023EF04F095
:100600001AC0C1F005010151000105E00A0A0BE022
:10061000010A2BE03CD00501406B416B020E00014A
:10062000C46F51DE36D0C1531EE0010EC15D036AB6
:10063000F2CFC3F0F29E94DDC3BFF28E016E0501CE
:10064000045DD8A002D000010ED0036A0451240F2B
:10065000E96E000E0320EA6EEFCF40F5010E0001B7
:10066000C46F31DE01D032DE14D0C1530EE0036A14
:1006700005010451240FE96E000E0320EA6E02C545
:10068000EFFF0001C46B1FDE01D020DE02D01EDEB2
:1006900000D023EF04F0C1AFC291C1BFC281C19F9E
:1006A000C2A110D0036AC151F2CFC3F0F29EF7DCB1
:1006B000C3BFF28E000A02E1000E01D0010E016EEE
:1006C00010D00FD0036AC151F2CFC3F0F29EE7DC25
:1006D000C3BFF28E000A02E1000E01D0010E016ECE
:1006E00000D0E6EF03F0C1AFC291C1BFC281C19F8C
:1006F000C2A110D0C151080DF350040F016E040EB9
:10070000036ED8B0032A01C0E9FF03C0EAFF880ED8
:10071000EF6E09D0C151080DF3CF01F0040E01C0F6
:10072000E9FFEA6EEF6AF5EF03F0C1AFC291C1BF16
:10073000C281C19FC2A110D0C151080DF350040F56
:10074000016E040E036ED8B0032A01C0E9FF03C096
:10075000EAFF840EEF6E0AD0C151080DF3CF01F00D
:10076000040E01C0E9FFEA6E840EEF6EFBEF03F0AA
:10077000C1AFC291C1BFC281C19FC2A110D0C1513E
:10078000080DF350040F016E040E036ED8B0032A57
:1007900001C0E9FF03C0EAFFEFCFC3F00AD0C151A7
:1007A000080DF3CF01F0040E01C0E9FFEA6EEFCFB0
:1007B000C3F0C3AF02D0C3B502D0000E01D0010E0A
:1007C000016E05EF04F004C5C1F065D7015229E0C0
:1007D00005010151010A000105E0020A09E0030ACE
:1007E0000DE01DD004C5C1F07ED7C46B6CDD19D0FF
:1007F00004C5C1F09AD7C46B66DD13D00501406B08
:10080000416B04C5C1F00001B3D7015204E0010EF1
:100810000501406F0001020EC46F55DD02D056DDA8
:1008200000D023EF04F0196A050100517F0B00018D
:1008300005E0010A04E0030A03E003D090D6E0D605
:10084000C2D744DD00D047EF05F0C151080DF3CF0A
:1008500001F0040E01C0E9FFEA6EEFCFC3F0C25110
:10086000020806E1C3AD02D0C26B02D0010EC26F16
:10087000C251030812E1840EC36FC151080DF35039
:10088000040F016E040E036ED8B0032A01C0E9FF05
:1008900003C0EAFF840EEF6E09D0C22D03D0C80E4C
:1008A000C36F04D0C25302E1880EC36F036A010E06
:1008B000026EC151006E05E0D89002360336002E5C
:1008C000FBD70250FF0A006EFF0E031A00501D16E0
:1008D00003501E16D890C135036AF2CFC6F0F29EBF
:1008E00006DC0900F5CF03F0C6BFF28EC46F03C06B
:1008F000C5F0C151080DF350010F016E040E036ED7
:10090000D8B0032A01C0E9FF03C0EAFFC4C0EFFF6B
:10091000C5B1C381C5B3C383C151080DF3CF01F085
:10092000040E01C0E9FFEA6EC3C0EFFF000CC15125
:10093000080DF350040F016E040E036ED8B0032AA5
:1009400001C0E9FF03C0EAFFEFCFC5F0C5BF5BD030
:10095000C151080DF350050F016E040E036ED8B09F
:10096000032A01C0E9FF03C0EAFFC2C0EFFFC45180
:10097000020816E1C151080DF350040F016E040E78
:10098000036ED8B0032A01C0E9FF03C0EAFFEFCF2E
:10099000C5F0C5AD02D0C46B02D0010EC46F13D038
:1009A000C451040810E1C151080DF3CF01F0040E49
:1009B00001C0E9FFEA6EEFCFC5F0C5AD03D0010E6F
:1009C000C46F01D0C46BC42D03D0C80EC56F04D052
:1009D000C45302E1880EC56FC3B1C581C3B3C583DB
:1009E000C151080DF350040F016E040E036ED8B010
:1009F000032A01C0E9FF03C0EAFFC5C0EFFF010EF3
:100A0000016E03D000D0000E016E000CC15302E154
:100A100027DC0FD0036A010E026EC151006E05E0A3
:100A2000D89002360336002EFBD702501D12035019
:100A30001E12000CC2C06EFFC25303E0040E1F6EF4
:100A400002D0020E1F6E2AEF05F01A6A196A21C041
:100A5000C2F0F0D736EF05F0C15308E1192C02D0EF
:100A600038DC04D01950020801E1EFD7000C6C30DB
:100A7000C06FC033C0331F0EC0176C523BE104017E
:100A800000513C0B34081BE1046B0001CCD6203C28
:100A900005D0C16B030EC26FD8DE0ED0C16B020E43
:100AA000C26FD3DE2050FE0807E0C16BC36B20C0CD
:100AB000C2F0040EC46F3BDF6D9819D004010051E1
:100AC0003C0B040815E10001C16BA0DFC16B020EF5
:100AD000C26FBBDE2050FE080AE0203C01D007D0E8
:100AE000C16BC36B20C0C2F0010EC46F20DF0401D4
:100AF00020D000016C50040812E1FF0E206EC16B83
:100B0000ABDF203C01D008D0C16BC36B20C0C2F06A
:100B1000020EC46F0CDF02D030EC01F009D06CB4CF
:100B200004D0C0C0C1F072DF03D0C0C0C1F094DFF8
:100B300004010001CDEF05F01F5201E12FD06852F2
:100B40002DE068A404D069A402D0FFEF00F06DA2EC
:100B500001D024D068A204D069A202D004EF01F031
:100B600068A004D069A002D03FEF01F068A804D0CB
:100B700069A802D054EF01F068AC04D069AC02D08F
:100B800059EF01F068AA04D069AA02D05CEF01F025
:100B900068A604D069A602D06AD76896A19A2CEFFD
:100BA00000F06D6A696A080E6F6E94503009946E99
:100BB0001F6A186AF2BE188EF29E08EC01F018BE89
:100BC000F28E1E6A1D6A08EF06F0186AF2BE188ED1
:100BD000F29E08EC01F018BEF28E6D6A140E6F6E74
:100BE000696A6D86010E1F6EF9EF05F06DB601D0D2
:100BF000ECD71F2C0BD06DBA09D0686A696AA08A3D
:100C0000C00EF212110E696E020E1F6E000CC9D7D3
:100C1000EDDF1F500208FCE125EF07F01A5202E158
:100C20000400FCD727EF07F0B351080DF350020F73
:100C3000016E040E036ED8B0032A01C0E9FF03C0A1
:100C4000EAFFECCF03F0ED52EFCFB8F003C0B9F0FC
:100C5000B351080DF350010F016E040E036ED8B0AE
:100C6000032A01C0E9FF03C0EAFFEF50036ABB6F2C
:100C700003C0BCF0B351080DF3CF01F0040E01C066
:100C8000E9FFEA6EEFCFBAF0BAB1BC81BAB3BC8368
:100C9000BC51B75D08E303E1B651BB5D04E2BCC0E3
:100CA000B7F0BBC0B6F0BC6BBB6BBC51B75D1AE311
:100CB00003E1B651BB5D16E2B8C0E9FFB9C0EAFF77
:100CC000EFCFBFF0B5C0EAFFB4C0E9FFBFC0EFFF90
:100CD000B42BD8B4B52BB82BD8B4B92BBB2BD8B404
:100CE000BC2BE3D7B6C001F0B7C002F083EF06F02B
:100CF000AEC0B3F0B0C0B5F0AFC0B4F0B2C0B7F0A2
:100D0000B1C0B6F091D702C0B2F001C0B1F0186A1C
:100D1000F2BE188EF29EAEC0C1F0020EC26F95DD1B
:100D200018BEF28EB1C001F0B2C002F0BBEF07F006
:100D3000AE51080DF350040F016E040E036ED8B0CF
:100D4000032A01C0E9FF03C0EAFFEFCFB6F0B6BF48
:100D500045D0AE51080DF350060F016E040E036E20
:100D6000D8B0032A01C0E9FF03C0EAFFECCF03F0CB
:100D7000ED52EFCFB7F003C0B8F0B56BB46BB5511F
:100D8000B25D1AE303E1B151B45D16E2AFC0E9FF11
:100D9000B0C0EAFFEFCFBBF0B8C0EAFFB7C0E9FFD1
:100DA000BBC0EFFFB72BD8B4B82BAF2BD8B4B02B48
:100DB000B42BD8B4B52BE3D7186AF2BE188EF29EC6
:100DC000AEC0C1F0B2C0C3F0B1C0C2F0B3C0C4F095
:100DD000AEDD18BEF28E015003D000D0000E016EC1
:100DE000000CAF51016AAE5D03E2AEC000F00CD062
:100DF000006A080EB06FAE370036AF51005CD8B055
:100E0000006E0136B02FF7D7F5EF07F0F86AD09EE5
:100E10000D8EEA6AE96AC150C00B0F09C16E070E58
:100E2000B46E1F6A236AA96BAA6BAB6BAC6BC15023
:100E3000C00B0D09C16EC080C082C084C09EC2803C
:100E4000939C8A9C939E8A8EE2D6D0DEE7D6939CB2
:100E50008A8C939E8A9E1A52D8B430D1AB513F08E7
:100E600030E3000E016EC250C30B0110C26E270E9C
:100E7000006E002EFED700D0036AAB51290FE96E39
:100E8000000E0320EA6EC282C2B2FED7C4CFEFFFCB
:100E9000040E016EC250C30B0110C26E270E006E0D
:100EA000002EFED700D0036AAB51690FE96E000E29
:100EB0000320EA6EC282C2B2FED7C4CFEFFFAB2BD3
:100EC00034D0010EAC6FAB6B410EA96F000E016EFA
:100ED000C250C30B0110C26E270E006E002EFED74B
:100EE00000D0036AAB51290FE96E000E0320EA6EB1
:100EF000C282C2B2FED7C4CFEFFF040E016EC25051
:100F0000C30B0110C26E270E006E002EFED700D05C
:100F1000036AAB51690FE96E000E0320EA6EC282CC
:100F2000C2B2FED7C4CFEFFFAB2B1DA2C7D0AB51CF
:100F30003F0809E3A951410806E1010EAB5DAA6F24
:100F4000ABC0A9F00FD0AB51400807E1A95141084F
:100F500004E13F0EAA6FA96B05D0A95303E1010E6E
:100F6000AB5DAA6F010EAE6FB06B250EAF6FB26BAB
:100F7000030EB16FBDD625520EE127502624286EF0
:100F8000010EAE6FB06B280EAF6FB26B010EB16F7A
:100F9000020EB36FCDDE252C0ED02750265C286EB6
:100FA000010EAE6FB06B280EAF6FB26B010EB16F5A
:100FB000020EB36FBDDE255002080FE12650270256
:100FC000F3CF28F0010EAE6FB06B280EAF6FB26B8F
:100FD000010EB16F020EB36FABDE2550030812E1B4
:100FE00026C0AEF027C0AFF0FCD601C028F0010E3D
:100FF000AE6FB06B280EAF6FB26B010EB16F020E09
:10100000B36F96DE2550090821E1265204E1939C36
:101010008A9C939E8A9E262C04D0939C8A8C939EB5
:101020008A9E2650020804E1939C8A9C939E8A8E95
:101030002650030804E1939C8A8C939E8A8E265046
:10104000040804E1939C8A7C939E8A7E25500A08BA
:1010500019E1AC530CE0010EAE6FB06B290EAF6F0F
:10106000B26B400EB16F020EB36F62DE0BD0010E99
:10107000AE6FB06B290EAF6FB26BABC0B1F0020EAA
:10108000B36F56DE25500B0819E1AC530CE0010E8E
:10109000AE6FB06B690EAF6FB26B400EB16F020EE8
:1010A000B36F46DE0BD0010EAE6FB06B690EAF6F43
:1010B000B26BABC0B1F0020EB36F3ADECCD6030018
:020000040030CA
:0E000000220E3E1E008381000FC00FE00F4055
:00000001FF
;PIC18F2550
