:020000040000FA
:0400000006EF07F010
:08000800056ED8CF06F0E0CF31
:1000100007F00001E9CF0DF0EACF08F0E1CF09F0D9
:10002000E2CF0AF0D9CF0BF0DACF0CF0F3CF14F017
:10003000F4CF15F0FACF16F000C00FF001C010F0A9
:1000400002C011F003C012F004C013F0A0AA2CEFFC
:1000500000F0A1BA9CEF05F00FC000F010C001F055
:1000600011C002F012C003F013C004F00E8E0DC0D8
:10007000E9FF08C0EAFF09C0E1FF0AC0E2FF0BC0C8
:10008000D9FF0CC0DAFF14C0F3FF15C0F4FF16C08F
:10009000FAFF055007C0E0FF06C0D8FF1000F76A5E
:1000A000AE0FF66E000EF7220900F55012000401A3
:1000B0000000000000000000000000000000F76ADF
:1000C000CE0FF66E000EF7220900F5501200400028
:1000D00040000000000000000000000000000000E0
:1000E00000000000000000000000000000000DAE55
:1000F00003D0F2CF0EF0F29EF76A100FF66E010EEB
:10010000F7220900F5500DAE02D00EBEF28E12009D
:10011000400003000000000000000000000000009C
:1001200000000000000000000000000000000000CF
:10013000F76A400FF66E010EF7220900F550120023
:1001400009022000010100C0320904000002FFFF83
:10015000FF000705810240000107050102030001BD
:10016000F76A700FF66E010EF7220900F5501200C3
:100170000100F76A820FF66E010EF7220900F550B2
:1001800012001201100100000040D804110001000B
:1001900001020001F76AA40FF66E010EF7220900B2
:1001A000F550120000041700F76AB80FF66E010E42
:1001B000F7220900F5501200040309041303490053
:1001C00050004E002D004500530043004F004D00ED
:1001D00021035000490043002D0055005300420008
:1001E0002D0049004E005400520055004D004500BE
:1001F0004E0054004100430049004F004E006D92F4
:1002000069946894A7EF05F06A6A6892B0EF05F008
:10021000D86BD8530AE1036AD851240FE96E000E57
:100220000320EA6EEF6AD82BF4D71A6A010E1B6E10
:10023000196A000C010EE16FE1510F080EE3700E18
:10024000E125016E0F0E036ED8B0032A01C0E9FF4D
:1002500003C0EAFFEF6AE12BEFD71E6A1D6A000CAC
:10026000400E0401016F050E036F026B880E006FD4
:10027000046B050E076F400E066F0001000C6A6AE2
:10028000686A9F0E6B6E390E696E6E6AC1DFD2DFCF
:10029000160E706E68A602D06896FCD76D98E0DFE7
:1002A000030E1F6EB6EF05F0698468986D82BCEF8F
:1002B00005F0689CC2EF05F070A002D0D1DF70900D
:1002C000689AC8EF05F0DCC020F0000CFF0E206E2D
:1002D000000CDA6B235235E0DA513F0832E31C5050
:1002E00005E0020A0DE0010A15E01ED0036A225063
:1002F000F2CFDCF0F29E1CDFDCBFF28EDB6F14D09D
:10030000036A2250F2CFDCF0F29E4EDFDCBFF28EA9
:10031000DB6F0AD0036A2250F2CFDCF0F29E29DFB5
:10032000DCBFF28EDB6F00D0222A2306DA51DA2BF3
:10033000036A400FE96E050E0320EA6EDBC0EFFF93
:10034000C9D7235204E1DA51400801E0196ADAC042
:10035000DCF0B9DF000C226A1C6A05010351010AB6
:10036000000105E0030A08E0010A09E01FD0120EAF
:10037000236E030E1C6E1CD0200E236E19D0020EAD
:100380001C6E036A05010251F2CFD9F0F29E000102
:1003900001DFD9BFF28E226E036A2250F2CFD9F06C
:1003A000F29E02DFD9BFF28E236E02D08FDF0CD017
:1003B0000501075305E12350065D02E206C523F05F
:1003C000010E196E000185DFFEEF02F0D95304E142
:1003D000040E1F6E2FDFC1D0050E1F6EDC6F800E66
:1003E000DB6F010EDA6FDA510F08D8A0B6D0DD6BE3
:1003F000036ADA51F2CFE1F0F29E51DEE1BFF28EF4
:10040000000A51E0040EDD6FD890DA35036AF2CFAE
:10041000E1F0F29E6CDE0900F5CF03F0E1BFF28E51
:10042000DE6F03C0DFF0DA51080DF350010F016EEB
:10043000040E036ED8B0032A01C0E9FF03C0EAFF2F
:10044000DEC0EFFFDA51080DF350020F016E040E0B
:10045000036ED8B0032A01C0E9FF03C0EAFFDCC085
:10046000ECFFED52DBC0EFFFD890DA35036AF2CF34
:10047000E1F0F29E3CDE0900F5CF03F0E1BFF28E21
:10048000DB270350DC23880EE06FDFB1E081DFB3B0
:10049000E083DA51080DF3CF01F0040E01C0E9FF4B
:1004A000EA6EE0C0EFFF036ADA51F2CFE1F0F29EAC
:1004B000F6DDE1BFF28E000A31E0DD83DA51080D8E
:1004C000F350060F016E040E036ED8B0032A01C06C
:1004D000E9FF03C0EAFFDCC0ECFFED52DBC0EFFF39
:1004E000D890DA35036AF2CFE1F0F29EE8DD090038
:1004F000F5CF03F0E1BFF28EDB270350DC23DA51A6
:10050000080DF350040F016E040E036ED8B0032AD9
:1005100001C0E9FF03C0EAFF400EEF6EDD5106089F
:1005200002E10E0EDD6F036ADA51F2CFE1F0F29EC6
:10053000B6DDE1BFF28E020801E0DD89700EDA253A
:10054000016E0F0E036ED8B0032A01C0E9FF03C08D
:10055000EAFFDDC0EFFFDA2B46D7F8EF02F0050126
:10056000015100010DE0010A14E0020A1EE0060A32
:1005700027E0030A2CE00E0A2BE0010A2FE03CD012
:100580001BC040F50501416B020E0001DC6F9BDED4
:1005900035D00501022D06D0010E1B160001DC6BC3
:1005A00092DE02D0000192DE29D00501022D05D095
:1005B0001B820001DC6B87DE02D0000187DE1ED0CB
:1005C000020E196E02C521F0DC6B7DDE17D0C3D69A
:1005D0001AC040F5010EDC6F76DE10D00501025125
:1005E000010808E302C51AF002C5D9F00001EED6F1
:1005F000DC6B69DE000102D069DE00D023EF04F07D
:100600001AC0D9F005010151000105E00A0A0BE00A
:10061000010A2BE03CD00501406B416B020E00014A
:10062000DC6F51DE36D0D9531EE0010ED95D036A6E
:10063000F2CFDBF0F29E94DDDBBFF28E016E05019E
:10064000045DD8A002D000010ED0036A0451240F2B
:10065000E96E000E0320EA6EEFCF40F5010E0001B7
:10066000DC6F31DE01D032DE14D0D9530EE0036AE4
:1006700005010451240FE96E000E0320EA6E02C545
:10068000EFFF0001DC6B1FDE01D020DE02D01EDE9A
:1006900000D023EF04F0D9AFDA91D9BFDA81D99F26
:1006A000DAA110D0036AD951F2CFDBF0F29EF7DC69
:1006B000DBBFF28E000A02E1000E01D0010E016ED6
:1006C00010D00FD0036AD951F2CFDBF0F29EE7DCF5
:1006D000DBBFF28E000A02E1000E01D0010E016EB6
:1006E00000D0E6EF03F0D9AFDA91D9BFDA81D99F14
:1006F000DAA110D0D951080DF350040F016E040E89
:10070000036ED8B0032A01C0E9FF03C0EAFF880ED8
:10071000EF6E09D0D951080DF3CF01F0040E01C0DE
:10072000E9FFEA6EEF6AF5EF03F0D9AFDA91D9BFCE
:10073000DA81D99FDAA110D0D951080DF350040FF6
:10074000016E040E036ED8B0032A01C0E9FF03C096
:10075000EAFF840EEF6E0AD0D951080DF3CF01F0F5
:10076000040E01C0E9FFEA6E840EEF6EFBEF03F0AA
:10077000D9AFDA91D9BFDA81D99FDAA110D0D95196
:10078000080DF350040F016E040E036ED8B0032A57
:1007900001C0E9FF03C0EAFFEFCFDBF00AD0D95177
:1007A000080DF3CF01F0040E01C0E9FFEA6EEFCFB0
:1007B000DBF0DBAF02D0DBB502D0000E01D0010EC2
:1007C000016E05EF04F004C5D9F065D7015229E0A8
:1007D00005010151010A000105E0020A09E0030ACE
:1007E0000DE01DD004C5D9F07ED7DC6B6CDD19D0CF
:1007F00004C5D9F09AD7DC6B66DD13D00501406BD8
:10080000416B04C5D9F00001B3D7015204E0010ED9
:100810000501406F0001020EDC6F55DD02D056DD90
:1008200000D023EF04F0196A050100517F0B00018D
:1008300005E0010A04E0030A03E003D090D6E0D605
:10084000C2D744DD00D047EF05F0D951080DF3CFF2
:1008500001F0040E01C0E9FFEA6EEFCFDBF0DA51E0
:10086000020806E1DBAD02D0DA6B02D0010EDA6FCE
:10087000DA51030812E1840EDB6FD951080DF350F1
:10088000040F016E040E036ED8B0032A01C0E9FF05
:1008900003C0EAFF840EEF6E09D0DA2D03D0C80E34
:1008A000DB6F04D0DA5302E1880EDB6F036A010EBE
:1008B000026ED951006E05E0D89002360336002E44
:1008C000FBD70250FF0A006EFF0E031A00501D16E0
:1008D00003501E16D890D935036AF2CFDEF0F29E8F
:1008E00006DC0900F5CF03F0DEBFF28EDC6F03C03B
:1008F000DDF0D951080DF350010F016E040E036EA7
:10090000D8B0032A01C0E9FF03C0EAFFDCC0EFFF53
:10091000DDB1DB81DDB3DB83D951080DF3CF01F00D
:10092000040E01C0E9FFEA6EDBC0EFFF000CD951F5
:10093000080DF350040F016E040E036ED8B0032AA5
:1009400001C0E9FF03C0EAFFEFCFDDF0DDBF5BD000
:10095000D951080DF350050F016E040E036ED8B087
:10096000032A01C0E9FF03C0EAFFDAC0EFFFDC5150
:10097000020816E1D951080DF350040F016E040E60
:10098000036ED8B0032A01C0E9FF03C0EAFFEFCF2E
:10099000DDF0DDAD02D0DC6B02D0010EDC6F13D0D8
:1009A000DC51040810E1D951080DF3CF01F0040E19
:1009B00001C0E9FFEA6EEFCFDDF0DDAD03D0010E3F
:1009C000DC6F01D0DC6BDC2D03D0C80EDD6F04D0F2
:1009D000DC5302E1880EDD6FDBB1DD81DBB3DD834B
:1009E000D951080DF350040F016E040E036ED8B0F8
:1009F000032A01C0E9FF03C0EAFFDDC0EFFF010EDB
:100A0000016E03D000D0000E016E000CD95302E13C
:100A100027DC0FD0036A010E026ED951006E05E08B
:100A2000D89002360336002EFBD702501D12035019
:100A30001E12000CDAC06EFFDA5303E0040E1F6EC4
:100A400002D0020E1F6E2AEF05F01A6A196A21C041
:100A5000DAF0F0D736EF05F0D95308E1192C02D0BF
:100A600038DC04D01950020801E1EFD7000C6C30DB
:100A7000D86FD833D8331F0ED8176C523BE104011E
:100A800000513C0B34081BE1046B0001CCD6203C28
:100A900005D0D96B030EDA6FD8DE0ED0D96B020EFB
:100AA000DA6FD3DE2050FE0807E0D96BDB6B20C085
:100AB000DAF0040EDC6F3BDF6D9819D004010051B1
:100AC0003C0B040815E10001D96BA0DFD96B020EC5
:100AD000DA6FBBDE2050FE080AE0203C01D007D0D0
:100AE000D96BDB6B20C0DAF0010EDC6F20DF040174
:100AF00020D000016C50040812E1FF0E206ED96B6B
:100B0000ABDF203C01D008D0D96BDB6B20C0DAF022
:100B1000020EDC6F0CDF02D030EC01F009D06CB4B7
:100B200004D0D8C0D9F072DF03D0D8C0D9F094DF98
:100B300004010001CDEF05F01F5201E12FD06852F2
:100B40002DE068A404D069A402D0FFEF00F06DA2EC
:100B500001D024D068A204D069A202D004EF01F031
:100B600068A004D069A002D03FEF01F068A804D0CB
:100B700069A802D054EF01F068AC04D069AC02D08F
:100B800059EF01F068AA04D069AA02D05CEF01F025
:100B900068A604D069A602D06AD76896A19A2CEFFD
:100BA00000F06D6A696A080E6F6E94503009946E99
:100BB0001F6A186AF2BE188EF29E08EC01F018BE89
:100BC000F28E1E6A1D6A08EF06F0186AF2BE188ED1
:100BD000F29E08EC01F018BEF28E6D6A140E6F6E74
:100BE000696A6D86010E1F6EF9EF05F06DB601D0D2
:100BF000ECD71F2C0BD06DBA09D0686A696AA08A3D
:100C0000C00EF212110E696E020E1F6E000CC9D7D3
:100C1000EDDF1F500208FCE129EF07F01A5202E154
:100C20000400FCD72BEF07F0CB51080DF350020F57
:100C3000016E040E036ED8B0032A01C0E9FF03C0A1
:100C4000EAFFECCF03F0ED52EFCFD0F003C0D1F0CC
:100C5000CB51080DF350010F016E040E036ED8B096
:100C6000032A01C0E9FF03C0EAFFEF50036AD36F14
:100C700003C0D4F0CB51080DF3CF01F0040E01C036
:100C8000E9FFEA6EEFCFD2F0D2B1D481D2B3D483F0
:100C9000D451CF5D08E303E1CE51D35D04E2D4C06B
:100CA000CFF0D3C0CEF0D46BD36BD451CF5D1AE369
:100CB00003E1CE51D35D16E2D0C0E9FFD1C0EAFF17
:100CC000EFCFD7F0CDC0EAFFCCC0E9FFD7C0EFFF30
:100CD000CC2BD8B4CD2BD02BD8B4D12BD32BD8B48C
:100CE000D42BE3D7CEC001F0CFC002F083EF06F0E3
:100CF000C6C0CBF0C8C0CDF0C7C0CCF0CAC0CFF0E2
:100D0000C9C0CEF091D702C0CAF001C0C9F0186ABC
:100D1000F2BE188EF29EC6C0D9F0020EDA6F95DDD3
:100D200018BEF28EC9C001F0CAC002F020EF08F070
:100D3000C651080DF350040F016E040E036ED8B0B7
:100D4000032A01C0E9FF03C0EAFFEFCFCEF0CEBF18
:100D500045D0C651080DF350060F016E040E036E08
:100D6000D8B0032A01C0E9FF03C0EAFFECCF03F0CB
:100D7000ED52EFCFCFF003C0D0F0CD6BCC6BCD51A7
:100D8000CA5D1AE303E1C951CC5D16E2C7C0E9FFB1
:100D9000C8C0EAFFEFCFD3F0D0C0EAFFCFC0E9FF71
:100DA000D3C0EFFFCF2BD8B4D02BC72BD8B4C82BD0
:100DB000CC2BD8B4CD2BE3D7186AF2BE188EF29E96
:100DC000C6C0D9F0CAC0DBF0C9C0DAF0CBC0DCF0D5
:100DD000AEDD18BEF28E015003D000D0000E016EC1
:100DE000000CC751016AC65D03E2C6C000F00CD01A
:100DF000006A080EC86FC6370036C751005CD8B00D
:100E0000006E0136C82FF7D75AEF08F0F86AD09E67
:100E10000D8EEA6AE96AC150C00B0F09C16E070E58
:100E2000B46E1F6A236A030EC36FC46BC56B296E51
:100E30002A6E6C6F6D6FC150C00B0B09C16EC08004
:100E4000C082C084C09EC280939C8A9C939E8A8EDE
:100E5000DED6CCDEE3D6939C8A8C939E8A9E1A5271
:100E6000D8B4CED1C351420830E3000E016EC25057
:100E7000C30B0110C26E270E006E002EFED700D0ED
:100E8000036AC351290FE96E000E0320EA6EC28285
:100E9000C2B2FED7C4CFEFFF040E016EC250C30B27
:100EA0000110C26E270E006E002EFED700D0036A1E
:100EB000C3516C0FE96E000E0320EA6EC282C2B20B
:100EC000FED7C4CFEFFFC32B35D0010EC56F030E85
:100ED000C36F440E296E000E016EC250C30B011089
:100EE000C26E270E006E002EFED700D0036AC351DB
:100EF000290FE96E000E0320EA6EC282C2B2FED74D
:100F0000C4CFEFFF040E016EC250C30B0110C26EBE
:100F1000270E006E002EFED700D0036AC3516C0F5F
:100F2000E96E000E0320EA6EC282C2B2FED7C4CFC1
:100F3000EFFFC32BC451090830E30C0E016EC25001
:100F4000C30B0110C26EC70E006E002EFED700D07C
:100F5000036AC451AF0FE96E000E0320EA6EC2822D
:100F6000C2B2FED7C4CFEFFF080E016EC250C30B52
:100F70000110C26EC70E006E002EFED700D0036AAD
:100F8000C451B90FE96E000E0320EA6EC282C2B2EC
:100F9000FED7C4CFEFFFC42B30D0C46B0C0E016E54
:100FA000C250C30B0110C26EC70E006E002EFED7DA
:100FB00000D0036AC451AF0FE96E000E0320EA6E41
:100FC000C282C2B2FED7C4CFEFFF080E016EC2507C
:100FD000C30B0110C26EC70E006E002EFED700D0EC
:100FE000036AC451B90FE96E000E0320EA6EC28293
:100FF000C2B2FED7C4CFEFFFC42B1DA201D129502E
:1010000044080EE1C351420806E3010EC35D2A6E97
:10101000C3C029F004D0430E2A6E020E296E03D0FD
:10102000010EC35D2A6E29C06CF02AC06DF0010E5E
:10103000C66FC86B250EC76FCA6B030EC96F58D633
:1010400025520EE127502624286E010EC66FC86B6C
:10105000280EC76FCA6B010EC96F020ECB6F68DE18
:10106000252C0ED02750265C286E010EC66FC86B4B
:10107000280EC76FCA6B010EC96F020ECB6F58DE08
:10108000255002080FE126502702F3CF28F0010E69
:10109000C66FC86B280EC76FCA6B010EC96F020EF0
:1010A000CB6F46DE2550030812E126C0C6F027C0EC
:1010B000C7F097D601C028F0010EC66FC86B280E86
:1010C000C76FCA6B010EC96F020ECB6F31DE2550A0
:1010D000040816E1938081B005D0010E286E93922A
:1010E0008A8203D0286A93928A92010EC66FC86BD7
:1010F000280EC76FCA6B010EC96F020ECB6F18DEC8
:10110000255005080BE1010EC66FC86BB90EC76FFD
:10111000CA6B0A0EC96F020ECB6F0ADE2550060895
:101120000BE1010EC66FC86BAF0EC76FCA6B0A0E1C
:10113000C96F020ECB6FFCDD2550090821E1265254
:1011400004E1939C8A9C939E8A9E262C04D0939CB7
:101150008A8C939E8A9E2650020804E1939C8A9C66
:10116000939E8A8E2650030804E1939C8A8C939E5A
:101170008A8E2650040804E1939C8A7C939E8A7E82
:1011800025500A081DE1C5530EE0430E2B6E010EDB
:10119000C66FC86B290EC76FCA6B430EC96F020EAC
:1011A000CB6FC6DD0DD0C3C06EF0010EC66FC86B2D
:1011B000290EC76FCA6BC3C0C9F0020ECB6FB8DD72
:1011C00025500B081DE1C5530EE0430E6E6F010E56
:1011D000C66FC86B6C0EC76FCA6B430EC96F020E29
:1011E000CB6FA6DD0DD0C3C06EF0010EC66FC86B0D
:1011F0006C0EC76FCA6BC3C0C9F0020ECB6F98DD0F
:041200002ED60300E3
:020000040030CA
:0E000000220E3E1E008381000FC00FE00F4055
:00000001FF
;PIC18F2550
